{
    "_format": "hh-sol-artifact-1",
    "contractName": "XPost",
    "sourceName": "contracts/XPost.sol",
    "abi": [
        {
            "inputs": [],
            "stateMutability": "payable",
            "type": "constructor"
        },
        {
            "anonymous": false,
            "inputs": [
                {
                    "indexed": true,
                    "internalType": "address",
                    "name": "from",
                    "type": "address"
                },
                {
                    "indexed": false,
                    "internalType": "uint256",
                    "name": "timestamp",
                    "type": "uint256"
                },
                {
                    "indexed": false,
                    "internalType": "string",
                    "name": "message",
                    "type": "string"
                }
            ],
            "name": "NewPost",
            "type": "event"
        },
        {
            "inputs": [
                {
                    "internalType": "string",
                    "name": "_message",
                    "type": "string"
                }
            ],
            "name": "createPost",
            "outputs": [],
            "stateMutability": "nonpayable",
            "type": "function"
        },
        {
            "inputs": [],
            "name": "getAllPosts",
            "outputs": [
                {
                    "components": [
                        {
                            "internalType": "address",
                            "name": "sender",
                            "type": "address"
                        },
                        {
                            "internalType": "string",
                            "name": "message",
                            "type": "string"
                        },
                        {
                            "internalType": "uint256",
                            "name": "timestamp",
                            "type": "uint256"
                        }
                    ],
                    "internalType": "struct XPost.Post[]",
                    "name": "",
                    "type": "tuple[]"
                }
            ],
            "stateMutability": "view",
            "type": "function"
        },
        {
            "inputs": [],
            "name": "getTotalPosts",
            "outputs": [
                {
                    "internalType": "uint256",
                    "name": "",
                    "type": "uint256"
                }
            ],
            "stateMutability": "view",
            "type": "function"
        },
        {
            "inputs": [
                {
                    "internalType": "address",
                    "name": "",
                    "type": "address"
                }
            ],
            "name": "lastPostedAt",
            "outputs": [
                {
                    "internalType": "uint256",
                    "name": "",
                    "type": "uint256"
                }
            ],
            "stateMutability": "view",
            "type": "function"
        }
    ],
    "bytecode": "0x60806040526200004a6040518060400160405280601981526020017f54686520636f6e747261637420686173206372656174656421000000000000008152506200007260201b60201c565b606444426200005a9190620001b8565b62000066919062000222565b60018190555062000347565b6200011281604051602401620000899190620002f4565b6040516020818303038152906040527f41304fac000000000000000000000000000000000000000000000000000000007bffffffffffffffffffffffffffffffffffffffffffffffffffffffff19166020820180517bffffffffffffffffffffffffffffffffffffffffffffffffffffffff83818316178352505050506200011560201b60201c565b50565b6200013b81620001366200013e60201b620005fe176200015f60201b60201c565b60201c565b50565b60006a636f6e736f6c652e6c6f679050600080835160208501845afa505050565b6200017360201b620006e017819050919050565b6200017d62000318565b565b6000819050919050565b7f4e487b7100000000000000000000000000000000000000000000000000000000600052601160045260246000fd5b6000620001c5826200017f565b9150620001d2836200017f565b9250828201905080821115620001ed57620001ec62000189565b5b92915050565b7f4e487b7100000000000000000000000000000000000000000000000000000000600052601260045260246000fd5b60006200022f826200017f565b91506200023c836200017f565b9250826200024f576200024e620001f3565b5b828206905092915050565b600081519050919050565b600082825260208201905092915050565b60005b838110156200029657808201518184015260208101905062000279565b60008484015250505050565b6000601f19601f8301169050919050565b6000620002c0826200025a565b620002cc818562000265565b9350620002de81856020860162000276565b620002e981620002a2565b840191505092915050565b60006020820190508181036000830152620003108184620002b3565b905092915050565b7f4e487b7100000000000000000000000000000000000000000000000000000000600052605160045260246000fd5b6111d880620003576000396000f3fe608060405234801561001057600080fd5b506004361061004c5760003560e01c8063305611001461005157806351493c4f1461006f5780635fe226b41461009f578063c7303c61146100bd575b600080fd5b6100596100d9565b60405161006691906108e6565b60405180910390f35b61008960048036038101906100849190610948565b61022a565b6040516100969190610984565b60405180910390f35b6100a7610242565b6040516100b49190610984565b60405180910390f35b6100d760048036038101906100d29190610ad4565b61024b565b005b60606002805480602002602001604051908101604052809291908181526020016000905b8282101561022157838290600052602060002090600302016040518060600160405290816000820160009054906101000a900473ffffffffffffffffffffffffffffffffffffffff1673ffffffffffffffffffffffffffffffffffffffff1673ffffffffffffffffffffffffffffffffffffffff16815260200160018201805461018690610b4c565b80601f01602080910402602001604051908101604052809291908181526020018280546101b290610b4c565b80156101ff5780601f106101d4576101008083540402835291602001916101ff565b820191906000526020600020905b8154815290600101906020018083116101e257829003601f168201915b50505050508152602001600282015481525050815260200190600101906100fd565b50505050905090565b60036020528060005260406000206000915090505481565b60008054905090565b42601e600360003373ffffffffffffffffffffffffffffffffffffffff1673ffffffffffffffffffffffffffffffffffffffff168152602001908152602001600020546102989190610bac565b106102d8576040517f08c379a00000000000000000000000000000000000000000000000000000000081526004016102cf90610c63565b60405180910390fd5b42600360003373ffffffffffffffffffffffffffffffffffffffff1673ffffffffffffffffffffffffffffffffffffffff16815260200190815260200160002081905550600160008082825461032e9190610bac565b925050819055506103746040518060400160405280601281526020017f25732063726561746564206120706f73742100000000000000000000000000008152503361061f565b600260405180606001604052803373ffffffffffffffffffffffffffffffffffffffff16815260200183815260200142815250908060018154018082558091505060019003906000526020600020906003020160009091909190915060008201518160000160006101000a81548173ffffffffffffffffffffffffffffffffffffffff021916908373ffffffffffffffffffffffffffffffffffffffff160217905550602082015181600101908161042c9190610e2f565b506040820151816002015550506064600154424461044a9190610bac565b6104549190610bac565b61045e9190610f30565b600181905550601960015410156105ab576104ae6040518060400160405280601481526020017f2573206561726e20302e303030312065746865720000000000000000000000008152503361061f565b6000655af3107a40009050478111156104fc576040517f08c379a00000000000000000000000000000000000000000000000000000000081526004016104f390610fd3565b60405180910390fd5b60003373ffffffffffffffffffffffffffffffffffffffff16826040516105229061104a565b60006040518083038185875af1925050503d806000811461055f576040519150601f19603f3d011682016040523d82523d6000602084013e610564565b606091505b50509050806105a8576040517f08c379a000000000000000000000000000000000000000000000000000000000815260040161059f906110ab565b60405180910390fd5b50505b3373ffffffffffffffffffffffffffffffffffffffff167fd8c86c7877c3f1f8a40af6cf64a11fe867af887f2a1ad31aac849e36730425b042836040516105f3929190611104565b60405180910390a250565b60006a636f6e736f6c652e6c6f679050600080835160208501845afa505050565b6106b78282604051602401610635929190611143565b6040516020818303038152906040527f319af333000000000000000000000000000000000000000000000000000000007bffffffffffffffffffffffffffffffffffffffffffffffffffffffff19166020820180517bffffffffffffffffffffffffffffffffffffffffffffffffffffffff83818316178352505050506106bb565b5050565b6106d2816106ca6105fe6106d5565b63ffffffff16565b50565b6106e0819050919050565b6106e8611173565b565b600081519050919050565b600082825260208201905092915050565b6000819050602082019050919050565b600073ffffffffffffffffffffffffffffffffffffffff82169050919050565b600061074182610716565b9050919050565b61075181610736565b82525050565b600081519050919050565b600082825260208201905092915050565b60005b83811015610791578082015181840152602081019050610776565b60008484015250505050565b6000601f19601f8301169050919050565b60006107b982610757565b6107c38185610762565b93506107d3818560208601610773565b6107dc8161079d565b840191505092915050565b6000819050919050565b6107fa816107e7565b82525050565b60006060830160008301516108186000860182610748565b506020830151848203602086015261083082826107ae565b915050604083015161084560408601826107f1565b508091505092915050565b600061085c8383610800565b905092915050565b6000602082019050919050565b600061087c826106ea565b61088681856106f5565b93508360208202850161089885610706565b8060005b858110156108d457848403895281516108b58582610850565b94506108c083610864565b925060208a0199505060018101905061089c565b50829750879550505050505092915050565b600060208201905081810360008301526109008184610871565b905092915050565b6000604051905090565b600080fd5b600080fd5b61092581610736565b811461093057600080fd5b50565b6000813590506109428161091c565b92915050565b60006020828403121561095e5761095d610912565b5b600061096c84828501610933565b91505092915050565b61097e816107e7565b82525050565b60006020820190506109996000830184610975565b92915050565b600080fd5b600080fd5b7f4e487b7100000000000000000000000000000000000000000000000000000000600052604160045260246000fd5b6109e18261079d565b810181811067ffffffffffffffff82111715610a00576109ff6109a9565b5b80604052505050565b6000610a13610908565b9050610a1f82826109d8565b919050565b600067ffffffffffffffff821115610a3f57610a3e6109a9565b5b610a488261079d565b9050602081019050919050565b82818337600083830152505050565b6000610a77610a7284610a24565b610a09565b905082815260208101848484011115610a9357610a926109a4565b5b610a9e848285610a55565b509392505050565b600082601f830112610abb57610aba61099f565b5b8135610acb848260208601610a64565b91505092915050565b600060208284031215610aea57610ae9610912565b5b600082013567ffffffffffffffff811115610b0857610b07610917565b5b610b1484828501610aa6565b91505092915050565b7f4e487b7100000000000000000000000000000000000000000000000000000000600052602260045260246000fd5b60006002820490506001821680610b6457607f821691505b602082108103610b7757610b76610b1d565b5b50919050565b7f4e487b7100000000000000000000000000000000000000000000000000000000600052601160045260246000fd5b6000610bb7826107e7565b9150610bc2836107e7565b9250828201905080821115610bda57610bd9610b7d565b5b92915050565b600082825260208201905092915050565b7f4d7573742077616974203330207365636f6e6473206265666f7265207761766960008201527f6e6720616761696e000000000000000000000000000000000000000000000000602082015250565b6000610c4d602883610be0565b9150610c5882610bf1565b604082019050919050565b60006020820190508181036000830152610c7c81610c40565b9050919050565b60008190508160005260206000209050919050565b60006020601f8301049050919050565b600082821b905092915050565b600060088302610ce57fffffffffffffffffffffffffffffffffffffffffffffffffffffffffffffffff82610ca8565b610cef8683610ca8565b95508019841693508086168417925050509392505050565b6000819050919050565b6000610d2c610d27610d22846107e7565b610d07565b6107e7565b9050919050565b6000819050919050565b610d4683610d11565b610d5a610d5282610d33565b848454610cb5565b825550505050565b600090565b610d6f610d62565b610d7a818484610d3d565b505050565b5b81811015610d9e57610d93600082610d67565b600181019050610d80565b5050565b601f821115610de357610db481610c83565b610dbd84610c98565b81016020851015610dcc578190505b610de0610dd885610c98565b830182610d7f565b50505b505050565b600082821c905092915050565b6000610e0660001984600802610de8565b1980831691505092915050565b6000610e1f8383610df5565b9150826002028217905092915050565b610e3882610757565b67ffffffffffffffff811115610e5157610e506109a9565b5b610e5b8254610b4c565b610e66828285610da2565b600060209050601f831160018114610e995760008415610e87578287015190505b610e918582610e13565b865550610ef9565b601f198416610ea786610c83565b60005b82811015610ecf57848901518255600182019150602085019450602081019050610eaa565b86831015610eec5784890151610ee8601f891682610df5565b8355505b6001600288020188555050505b505050505050565b7f4e487b7100000000000000000000000000000000000000000000000000000000600052601260045260246000fd5b6000610f3b826107e7565b9150610f46836107e7565b925082610f5657610f55610f01565b5b828206905092915050565b7f54686520636f6e747261637420646f6573206e6f74206861766520737566666960008201527f6369656e742066756e647320746f2070617920746865207072656d69756d0000602082015250565b6000610fbd603e83610be0565b9150610fc882610f61565b604082019050919050565b60006020820190508181036000830152610fec81610fb0565b9050919050565b600081905092915050565b7f2000000000000000000000000000000000000000000000000000000000000000600082015250565b6000611034600183610ff3565b915061103f82610ffe565b600182019050919050565b600061105582611027565b9150819050919050565b7f546865207072697a6520636f756c64206e6f742062652073656e740000000000600082015250565b6000611095601b83610be0565b91506110a08261105f565b602082019050919050565b600060208201905081810360008301526110c481611088565b9050919050565b60006110d682610757565b6110e08185610be0565b93506110f0818560208601610773565b6110f98161079d565b840191505092915050565b60006040820190506111196000830185610975565b818103602083015261112b81846110cb565b90509392505050565b61113d81610736565b82525050565b6000604082019050818103600083015261115d81856110cb565b905061116c6020830184611134565b9392505050565b7f4e487b7100000000000000000000000000000000000000000000000000000000600052605160045260246000fdfea264697066735822122099f2348f039b18dc22e6a413aa67a386144a8dc48ef48912c342287a66ba304e64736f6c63430008130033",
    "linkReferences": {},
    "deployedLinkReferences": {}
}